:03000E00010800E6
:07000300A2A182A292B72224
:03000B000200D31D
:1000D300C0E0E508700FD2A1758AAF758CFBD28C96
:1000E300750801800DC2A1758A00758C70D28C755C
:0500F3000800D0E0321E
:03001B000200F8E8
:0F00F800C0D0758DE8D28EB2A2120003D0D032E4
:1000AA00758929D2A9D2AFD2AB758AAF758CFBC23A
:1000BA008DD28CC2A1758DE8C28FD28EC2A230B306
:0900CA0004D2A080F9C2A080F567
:0300000002001EDD
:0C001E00787FE4F6D8FD758108020065CB
:10002A000200AAE493A3F8E493A34003F68001F242
:10003A0008DFF48029E493A3F85407240CC8C333D7
:10004A00C4540F4420C8834004F456800146F6DFA6
:10005A00E4800B010204081020408090000EE47E28
:10006A00019360BCA3FF543F30E509541FFEE4939B
:10007A00A360010ECF54C025E060A840B8E493A362
:10008A00FAE493A3F8E493A3C8C582C8CAC583CA8D
:10009A00F0A3C8C582C8CAC583CADFE9DEE780BE45
:0100110000EE
:00000001FF
